:0D090A000B08065B4F666D7D077F6F3F0099
:10088C00E4F5B0F5A075A03FF515F516740825161E
:10089C00F8E6F5B01208DAE4F513F514740825142B
:1008AC00F8E6F5A01208DA0514E51470020513D366
:1008BC009409E5136480948040E20516E5167002F5
:0D08CC000515D39409E5156480948040BFA4
:0108D90022FC
:1008DA00900000AF82AE83E4FCFD7BB87A88F9F819
:0908EA00D31208F44003A380EAD4
:0108F30022E2
:03000000020800F3
:0C080000787FE4F6D8FD758116020847E9
:1008F400EB9FF5F0EA9E42F0E99D42F0EC6480C87B
:0609040064809845F0221A
:10080C0002088CE493A3F8E493A34003F68001F26E
:10081C0008DFF48029E493A3F85407240CC8C333ED
:10082C00C4540F4420C8834004F456800146F6DFBC
:10083C00E4800B010204081020408090090AE47E39
:10084C00019360BCA3FF543F30E509541FFEE493B1
:10085C00A360010ECF54C025E060A840B8E493A378
:10086C00FAE493A3F8E493A3C8C582C8CAC583CAA3
:10087C00F0A3C8C582C8CAC583CADFE9DEE780BE5B
:0109170000DF
:00000001FF
